:1000000000308A00FE280000FF00030E8301A100DB
:100010000A08A0008A010408A2007708A300780853
:10002000A4007908A5007A08A600831383128C30F7
:100030008400801E1D288C1A2E2822088400230884
:10004000F7002408F8002508F9002608FA0020081F
:100050008A00210E8300FF0E7F0E09008A110A120A
:1000600031288C1E31281A08A7007E30A700A70867
:1000700003194928AC012C08033C031C49282830EB
:100080002C07840083138C1E43281A088000AC0AB6
:100090003B288C128A110A121D288E30F700350871
:1000A000F8003408F900FA01F808031D61287908FE
:1000B000F800F9010830F702F808031D6128F7017C
:1000C00069280310F81B6828F90DF80DF70361285B
:1000D000F813080034080319DA28BC00380803199B
:1000E000DA28BC0703187B287F30BC02031CDA28FF
:1000F0000319DA287F288130BC070318DA283C0866
:10010000F700F801F901FA013508C000C0173608F8
:10011000BF003708BE001830BC00BD013E1CA82837
:100120003B08FA07031C9A28F90A031D9A28F80AC3
:100130000319BD173A08F907031CA128F80A031987
:10014000BD173908B600B6173608F8070318BD17EB
:10015000BD0DF80CF90CFA0CC00CBF0CBE0C031052
:10016000BC0B8D280130F7070318DA28F81BBF28CD
:10017000C00DFA0DF90DF80DF7030319DA28C01FA9
:10018000D028FA0A031DD028F90A031DD028F80A3E
:10019000031DD028F80CF90CFA0CF70A0319DA2819
:1001A0003508BD003908BD06BD1FD828F817DE2860
:1001B000F813DE28F701F801F901FA0108008E3082
:1001C000F7003408F7023508F9003608F800F91787
:1001D000F7080319F6280310F908031DF228F80898
:1001E0000319F628F90CF80CF70BEB28B51FFD28BE
:1001F000F809F909F80A0319F90A080084018313B8
:100200001F308305613083168F000F080317871195
:10021000193003139900A63098009030831298008B
:10022000FF30AD00831603170908C0398900031396
:100230001F129F1200300317880083128701880164
:100240008901C03003138B0483168C160317090829
:10025000C039890003131F129F120630031788004C
:10026000831203131F179F1783169F1383121F14E4
:100270009412AD122D088316870083122D162D08B7
:10028000831687008312AD112D0883168700013075
:10029000831294000030831694000108C03901389D
:1002A0008100831290010030F80006389200FF3080
:1002B0008316920083122D112D0883168700831256
:1002C0000711831609130C308312970083169B01C4
:1002D0009C0101309D008312AD102D08831687000C
:1002E000831287100C309D0095019B010317870135
:1002F000880189010030831603138800323083128D
:10030000AA00AB002A08AE002B08AF00B5012E08EA
:10031000B4004D207A08B7007908B6007808B50017
:100320007708B4003330BB00BA002330B900803006
:10033000B8006A207A08B7007908B6007808B500D6
:100340007708B400DF207808B000B5012F08B400AA
:100350004D207A08B7007908B6007808B50077080C
:10036000B4003330BB00BA002330B9008030B8008D
:100370006A207A08B7007908B6007808B5007708CF
:10038000B400DF207808B1003008803C0318F02961
:100390003108783C0318F0293108873C031CF02908
:1003A000831688108312881083160810831208148D
:1003B0008316881183128811831608118312081579
:1003C00080303002F7000310770DB2008030300229
:1003D000F7000310770DB3003208950033089B0037
:1003E00030087F3C0318142A3108873C0318142A6C
:1003F000831688108312881083160810831208143D
:100400008316881183128811831608118312081528
:10041000883031023007803EB20080303002B300B5
:100420003208950033089B0030087F3C0318382AB7
:100430003108783C031C382A8316881083128810F0
:1004400083160810831208148316881183128811EA
:10045000831608118312081580303002B20031086B
:10046000783C3007803EB3003208950033089B008B
:1004700030087F3C031C642A3108783C0318642A46
:100480003108873C031C642A831608108312081065
:10049000831688108312881483160811831208119A
:1004A000831688118312881530087F3CF7000310EB
:1004B000770DB20030087F3CF7000310770DB300D2
:1004C0003208950033089B0030087F3C031C8A2AC1
:1004D0003108783C031C8A2A8316081083120810FE
:1004E000831688108312881483160811831208114A
:1004F00083168811831288153008803CB2003108B9
:10050000783C803EF80030087802B300320895004D
:1005100033089B0030087F3C031CB02A3108873C1D
:100520000318B02A83160810831208108316881047
:1005300083128814831608118312081183168811F8
:100540008312881588303102803EF8003008780226
:10055000B2003008803CB3003208950033089B009D
:040560008229630089
:04400E00D420FF3F7C
:00000001FF
;PIC16F887
;CRC=7FBD  CREATED="16-abr.-15 20:12"
