:1000000000308A0004280000840183131F30830518
:10001000613083168F000F0803170908C039890063
:1000200003131F129F1200300317880083128701E9
:100030008801890183160908C039890003131F123A
:100040009F12063003178800831203131F179F1790
:1000500083169F1383121F1483160108C7390838AB
:1000600081000430F80083121F08C33978049F0010
:100070009F149F1839281E08A1000830F8001F0897
:10008000C33978049F009F149F1844281E08A200BB
:100090002108803C03185D28831608108312081479
:1000A000831688108312881083160811831208158E
:1000B0008316881183128811822821087F3C031C33
:1000C0007228831608108312081083168810831272
:1000D000881483160811831208118316881183125D
:1000E000881582288316081083120810831688103A
:1000F0008312881083160811831208118316881141
:0A0100008312881183163128630072
:04400E00D420FF3F7C
:00000001FF
;PIC16F887
;CRC=667C  CREATED="26-mar.-15 22:16"
