:1000000000308A00B52800008E30F7002608F8007E
:100010002508F900FA01F808031D18287908F800E6
:10002000F9010830F702F808031D1828F701202805
:100030000310F81B1F28F90DF80DF7031828F81303
:100040000800250803199128AD00290803199128F3
:10005000AD07031832287F30AD02031C9128031925
:10006000912836288130AD07031891282D08F70014
:10007000F801F901FA012608B100B1172708B0000C
:100080002808AF001830AD00AE012F1C5F282C08E7
:10009000FA07031C5128F90A031D5128F80A03190D
:1000A000AE172B08F907031C5828F80A0319AE17D6
:1000B0002A08A700A7172708F8070318AE17AE0DE0
:1000C000F80CF90CFA0CB10CB00CAF0C0310AD0B22
:1000D00044280130F70703189128F81B7628B10D42
:1000E000FA0DF90DF80DF70303199128B11F8728B0
:1000F000FA0A031D8728F90A031D8728F80A031D39
:100100008728F80CF90CFA0CF70A0319912826082D
:10011000AE002A08AE06AE1F8F28F8179528F813F0
:100120009528F701F801F901FA0108008E30F7006F
:100130002508F7022608F9002708F800F917F7083C
:100140000319AD280310F908031DA928F80803199D
:10015000AD28F90CF80CF70BA228A61FB428F80953
:10016000F909F80A0319F90A0800840183131F30FA
:100170008305613083168F000F08FF308312A000C3
:10018000831603170908C039890003131F129F1231
:1001900000300317880083128701880189018316C4
:1001A0000908C039890003131F129F120630031774
:1001B0008800831203131F179F1783169F13831240
:1001C0001F149412A0122008831687008312201691
:1001D0002008831687008312A01120088316870049
:1001E0000130831294000030831694000108C03956
:1001F00001388100831290010030F8000638920027
:10020000FF30831692008312201120088316870086
:1002100083120711831609130C308312970083167B
:100220009B019C0101309D008312A01020088316C1
:100230008700831287100C309D0095019B010317E6
:100240008701880189010030831603138800043078
:10025000F80083121F08C33978049F009F149F1869
:100260002F291E08A100A6012108A5000420C930DD
:10027000A800C830A7004830A6007D30A5007A0845
:10028000AC007908AB007808AA007708A900212003
:100290007A08A8007908A7007808A6007708A500C2
:1002A00096207808A3000830F8001F08C3397804A6
:1002B0009F009F149F185A291E08A200A601220819
:1002C000A5000420C930A800C830A7004830A60007
:1002D0007D30A5007A08AC007908AB007808AA0048
:1002E0007708A90021207A08A8007908A7007808D3
:1002F000A6007708A50096207808A400210895009C
:1003000022089B002308323C031897298316081003
:10031000831208148316881083128810831688119C
:10032000831288158316081283120812AB2923083A
:10033000313C031CAB298316081083120810831666
:1003400088108312881483168811831288118316EB
:0C03500008128312081683162729630088
:04400E00D420FF3F7C
:00000001FF
;PIC16F887
;CRC=F6A8  CREATED="09-abr.-15 16:05"
